:100000008BC00000A4C00000A2C00000A0C000007F
:100010009EC000009CC000009AC0000098C0000074
:1000200096C0000094C0000092C000004DC20000C5
:100030008EC000008CC000008AC0000088C0000094
:1000400086C0000084C0000082C0000081C00000A3
:100050007EC000007CC000007AC0000078C00000B4
:1000600076C0000074C0000072C0000070C00000C4
:100070006EC000006CC000006AC0000068C00000D4
:1000800066C0000064C0000062C0000060C00000E4
:100090005EC000005CC0000005010904A101050963
:1000A00019012906150025017501950681027502C1
:1000B00095018101C01201100100000008EB03430B
:1000C0002001000102000109022200010100C032EA
:1000D00009040000010300000009211101000122B0
:1000E0001D000705810308000104030904120343EE
:1000F00000720061007A00790069006F00700000F2
:100100000014035400610070006900730020004473
:10011000004400520000000011241FBECFEFD4E0C5
:10012000DEBFCDBF11E0A0E0B1E0E4E7F0E102C046
:1001300005900D92AE30B107D9F711E0AEE0B1E015
:1001400001C01D92A232B107E1F7A6D091C758CFE6
:100150001F920F920FB60F9211242F933F934F933C
:100160005F938F939F93EF93FF9383B18F7320E0FF
:1001700030E0482F50E0CA01022E02C095958795C5
:100180000A94E2F7F901E25FFE4F80FF07C0808129
:1001900087FD05C080818F5F808301C010822F5F43
:1001A0003F4F2630310539F7FF91EF919F918F91A5
:1001B0005F914F913F912F910F900FBE0F901F9025
:1001C00018955E9A08955E98089580910B0190911C
:1001D0000C01009729F0019790930C0180930B017B
:1001E00008950F931F93CF93DF93D901E80140E067
:1001F00020E030E061E070E0F901E25FFE4F8081D5
:100200008B3040F0CB01022E02C0880F991F0A9458
:10021000E2F7480F2F5F3F4F2630310569F74095D1
:100220004C9381E090E09983888380E0DF91CF91C7
:100230001F910F910895089580E091E0C2C580E07C
:1002400091E087D59091E20094609093E20080FD68
:1002500002C090E401C090E08BB190958064982337
:100260009BB9089584B7877F84BF88E10FB6F8945F
:1002700080936000109260000FBE569A5E9A14B888
:100280008FEF85B992E094BD84E085BD90936E00B8
:1002900016BC8FEA87BD09C1E5DF5E98789480E0DF
:1002A00091E09DD489D4FBCFDA019330B1F0943042
:1002B00028F4913041F0923079F50AC0913211F171
:1002C000923251F524C0E5EBF0E022E130E028C0A5
:1002D000E7ECF0E022E230E023C0813049F08130E9
:1002E00018F08230C9F40AC0E9EEF0E0849103C04E
:1002F000EDEEF0E08491282F30E012C0E1E0F1E073
:100300008491F9CFE9EDF0E029E030E009C0E8E9B7
:10031000F0E02DE130E004C0E0E0F0E020E030E08B
:10032000ED93FC93C9010895382F282F2CC02093FA
:10033000E900231721F4762F942F50E006C0709126
:10034000EC009091ED005091F00091FF1BC0809166
:10035000EB008E7F8093EB008091ED0082708093A4
:10036000ED008091EB0081608093EB007093EC00D6
:100370009093ED005093F0008091EE0087FD02C055
:1003800080E008952F5F253090F23093E90081E0FE
:10039000089580911A0188239CF404C0809119016A
:1003A0008823B9F08091E80082FFF8CF8091E800BF
:1003B0008B778093E800089580911901882349F094
:1003C0008091E80080FFF8CF8091E8008E778093DD
:1003D000E80008954091E4005091E50024E6809102
:1003E000EC0080FF05C08091E80080FF05C022C0BE
:1003F0008091E80082FD1EC080911901882311F4CC
:1004000082E00895853011F483E008958091EB0037
:1004100085FF02C081E008958091E4009091E5009D
:1004200084179507E1F2222311F484E00895215006
:10043000AC01D5CF80E0089541D043D08091D80061
:10044000982F9F779093D80080688093D8008091F0
:10045000D8008F7D8093D80084E089BD89B5826003
:1004600089BD09B400FEFDCF109219011092170149
:10047000109216011092150180E060E042E054DF16
:100480008091E1008E7F8093E1008091E2008160A5
:100490008093E2008091E20088608093E200809186
:1004A000E0008E7F8093E0000895E3E6F0E0808135
:1004B0008E7F808381E080931801BECF1092E2008E
:1004C00008951092E10008951F920F920FB60F92B7
:1004D00011242F933F934F935F936F937F938F9349
:1004E0009F93AF93BF93EF93FF938091E10082FFBF
:1004F0000AC08091E20082FF06C08091E1008B7FFC
:100500008093E10062DE8091E10080FF17C080915E
:10051000E20080FF13C08091E2008E7F8093E200B2
:100520008091E20080618093E2008091D800806237
:100530008093D80019BC1092190145DE8091E1002A
:1005400084FF2EC08091E20084FF2AC084E089BD30
:1005500089B5826089BD09B400FEFDCF8091D800C5
:100560008F7D8093D8008091E1008F7E8093E100A1
:100570008091E2008F7E8093E2008091E2008160B2
:100580008093E20080911701882331F48091E30089
:1005900087FD02C081E001C084E08093190111DE73
:1005A0008091E10083FF22C08091E20083FF1EC0A2
:1005B0008091E100877F8093E10082E080931901C0
:1005C000109217018091E1008E7F8093E10080916D
:1005D000E2008E7F8093E2008091E2008061809350
:1005E000E20080E060E042E09FDE95D1FF91EF9174
:1005F000BF91AF919F918F917F916F915F914F913B
:100600003F912F910F900FBE0F901F9018950F9351
:100610001F93DF93CF93CDB7DEB7AC970FB6F894A7
:10062000DEBF0FBECDBF8091F10080931A01809193
:10063000F10080931B018091F1009091F100ECE1B9
:10064000F1E080931C0190931D018091F100909145
:10065000F10080931E0193838091F1009091F1004D
:10066000809320019583E8DD8091E80083FF3AC103
:1006700080911A0130911B01353009F487C0363062
:1006800040F43130C9F1313070F0333009F02AC113
:1006900033C0383009F4F8C0393009F407C13630B6
:1006A00009F020C199C0803821F0823809F01AC1C0
:1006B00008C09091150180911601882399F09260ED
:1006C00011C080911E0187708093E9008091EB003A
:1006D00090E025E0969587952A95E1F7982F9170FF
:1006E0001092E9008091E800877F8093E800909362
:1006F000F1001092F100D3C0882319F0823009F084
:10070000F1C090E08F719070009721F0029709F08E
:10071000E9C00CC080911C01813009F0E3C0109247
:100720001601333069F5809316012AC080911C01AF
:10073000882331F520911E01277009F4D3C020933E
:10074000E9008091EB0080FF1BC0333021F48091E1
:10075000EB00806213C08091EB0080618093EB001E
:1007600081E090E002C0880F991F2A95E2F78093FC
:10077000EA001092EA008091EB0088608093EB0021
:100780001092E9008091E800877F8CC0882309F0EF
:10079000A9C010911C011F770FB7F8948091E80051
:1007A000877F8093E800F5DD8091E80080FFFCCF33
:1007B0008091E3008078812B8093E3008091E300B7
:1007C00080688093E300112311F482E001C083E08C
:1007D000809319010FBF86C08058823008F082C014
:1007E00080911C0190911D0123E08C3D920709F03E
:1007F00033C083E08C838AE28B837FB7F894DE0179
:1008000015966EE040E050E011E2E62FF0E0109324
:100810005700849140FF03C082958F706F5F8F7087
:10082000282F30E08A3018F0C901C79602C0C901EC
:10083000C0968D939D934F5F5F4F4431510529F7CB
:100840007FBF8091E800877F8093E800CE01039608
:100850006AE270E061D012C060911E01AE014F5F8C
:100860005F4F22DDBC01009709F43CC08091E80095
:10087000877F8093E80089819A81EBD08091E8009E
:100880008B778093E8002EC0803861F58091E80076
:10089000877F8093E800809117018093F100809119
:1008A000E8008E778093E80074DD1CC08823D1F4C3
:1008B00090911C019230B0F48091E800877F809382
:1008C000E8009093170165DD80911701882331F4CA
:1008D0008091E30087FD02C081E001C084E0809345
:1008E0001901ADDC8091E80083FF0AC08091EB0024
:1008F00080628093EB008091E800877F8093E8001E
:10090000AC960FB6F894DEBF0FBECDBFCF91DF918E
:100910001F910F91089508959C01409120015091DD
:1009200021014617570718F4F90190E03DC0611501
:10093000710511F0AB01F8CF8091E8008E778093BC
:10094000E80040E050E0F0CF809119018823F1F1F8
:100950008530F1F18091E80083FF02C081E00895C5
:100960008091E80082FD2CC08091E80080FF1CC0CF
:100970008091F200282F30E007C081918093F10030
:10098000415050402F5F3F4F4115510519F028301D
:10099000310598F390E02830310509F491E0809119
:1009A000E8008E778093E8004115510569F6992398
:1009B00059F606C080911901882341F0853041F035
:1009C0008091E80082FFF6CF80E0089582E00895EC
:1009D00083E008959C016115710529F48091E80078
:1009E0008B778093E800F90120C08091190188235A
:1009F00061F1853061F18091E80083FF02C081E000
:100A000008958091E80082FFF0CF06C08091F10048
:100A100081936150704021F08091F2008823B1F7FA
:100A20008091E8008B778093E80061157105E9F605
:100A300006C080911901882341F0853041F08091F2
:100A4000E80080FFF6CF80E0089582E0089583E01B
:100A500008959C01409120015091210146175707AC
:100A600018F4F90190E040C06115710511F0AB0177
:100A7000F8CF8091E8008E778093E80040E050E066
:100A8000F0CF80911901882309F440C0853009F422
:100A90003FC08091E80083FF02C081E0089580910B
:100AA000E80082FD2DC08091E80080FF1DC080918C
:100AB000F200282F30E008C084918093F100319635
:100AC000415050402F5F3F4F4115510519F02830DC
:100AD000310590F390E02830310509F491E08091E0
:100AE000E8008E778093E8004115510551F699236F
:100AF00041F606C080911901882341F0853041F00C
:100B00008091E80082FFF6CF80E0089582E00895AA
:100B100083E00895BF92CF92DF92EF92FF920F93FE
:100B20001F93CF93DF93182F092F7B016A0152DCAB
:100B3000B82E8823B1F5812F902F9C01E901C114B3
:100B4000D10439F0F60180819181E81AF90AC80FC1
:100B5000D91F00E010E022C08091E80085FD16C09A
:100B60008091E8008E778093E800C114D10449F0A9
:100B7000F60180819181800F911F9183808385E0B0
:100B800011C01AD027DC882349F00CC089918093CA
:100B9000F1000894E108F1080F5F1F4FE114F10420
:100BA000D9F68B2DDF91CF911F910F91FF90EF9090
:100BB000DF90CF90BF9008951F93809119018823F3
:100BC00061F01091E9001092E9008091E80083FF44
:100BD00001C01DDD17701093E9001F9108954F9219
:100BE0005F926F927F928F929F92AF92BF92CF92BD
:100BF000DF92EF92FF920F931F93DF93CF9300D07A
:100C00000F92CDB7DEB77C016DB67EB6809119012B
:100C1000843009F085C0F70181818093E9008091DB
:100C2000E80085FF7DC05DB64EB647818DB79EB7A3
:100C3000841B91090FB6F8949EBF0FBE8DBF0DB7F0
:100C40001EB70F5F1F4F19821B821A82C02E912E72
:100C5000C80160E070E050E004D2C701BE016F5FE0
:100C60007F4F40E098018E010E5F1F4FBADA882E49
:100C7000F70181859285892B19F4AA24BB240BC026
:100C800020E0F70183859485892B09F021E081E03C
:100C90002827A22EBB24F701058116810115110515
:100CA00011F4DD2412C04A815B818C2D992DB8018D
:100CB000C2D1DD24009711F0DD24D394F7014781E0
:100CC000C8016C2D792D50E0C3D18A819B81892B7D
:100CD000F9F0882021F4DD2011F4AB28C9F0F701E8
:100CE000818592859487838781818093E9008981BA
:100CF000882311F08093F1006A817B818C2D992DDE
:100D000040E050E007DF8091E8008E778093E800B4
:100D1000852D942D9C010FB6F8943EBF0FBE2DBFBC
:100D20000FB6F8947EBE0FBE6DBE0F900F900F9061
:100D3000CF91DF911F910F91FF90EF90DF90CF90B7
:100D4000BF90AF909F908F907F906F905F904F90EB
:100D50000895CF93DF93DC010896FC0185E0EF0155
:100D600019928A95E9F781E018968C93189784EF89
:100D700091E01A969C938E93199711963C91119736
:100D800012966D917C91139714968C91882311F48F
:100D900040E001C044E020E088E090E003C02F5F25
:100DA000880F991F86179707D0F342602295207FFE
:100DB000422B832F61ECB8DA811181E0DF91CF9172
:100DC00008956F927F928F929F92AF92BF92CF922F
:100DD000DF92EF92FF920F931F93DF93CF9300D098
:100DE0000F92CDB7DEB76C016DB67EB68091E8008C
:100DF00083FF0AC1F601808190E020911E013091AD
:100E00001F012817390709F0FFC080911B018330AB
:100E100009F4AAC0843030F4813071F0823009F0D6
:100E2000F3C0DAC08A3009F4BFC08B3009F4A9C01E
:100E3000893009F0E9C055C080911A01813A09F062
:100E4000E3C09DB68EB61B821A8280911C01109160
:100E50001D018983F60147818DB79EB7841B9109D7
:100E60000FB6F8949EBF0FBE8DBFEDB6FEB60894C8
:100E7000E11CF11CBE2CAF2CC70160E070E050E01B
:100E8000F0D01150C601BE016F5F7F4F412F970117
:100E90008E010E5F1F4FA5D9F601258136812115E0
:100EA000310529F04781C901B70150E0D1D0109236
:100EB000E9008091E800877F8093E8006A817B8168
:100EC0008B2D9A2D29DD8091E8008B778093E800A7
:100ED000292D382DC9010FB6F8949EBF0FBE8DBFC6
:100EE00093C080911A01813209F08EC09DB68EB6F2
:100EF0000091200110912101A0901C01B0901D01D2
:100F00008DB79EB7801B910B0FB6F8949EBF0FBE96
:100F10008DBFEDB6FEB60894E11CF11C8091E8008F
:100F2000877F8093E800C701B80154DD8091E80015
:100F30008E778093E80080E090E0AA2011F081E0B5
:100F400090E0BA94E80EF91E081B190BC6016A2D31
:100F50004B2D970170D9892D982D9C010FB6F894CF
:100F60003EBF0FBE2DBF50C080911A01813A09F0DB
:100F70004BC08091E800877F8093E800F601808570
:100F80003BC080911A01813209F03EC08091E80097
:100F9000877F8093E800FDD990E080911C0181114A
:100FA00091E0F601908730C080911A01813261F59D
:100FB0008091E800877F8093E800EBD980911C0145
:100FC00090911D01807076E0969587957A95E1F76E
:100FD000F6019287818718C080911A01813AA1F4A5
:100FE0008091E800877F8093E800F60181859285F3
:100FF00096958795969587958093F1008091E80066
:101000008E778093E800C5D90FB6F8947EBE0FBEE8
:101010006DBE0F900F900F90CF91DF911F910F91A8
:10102000FF90EF90DF90CF90BF90AF909F908F9008
:101030007F906F900895FB01DC0104C08D910190B9
:10104000801921F441505040C8F7881B990B08952E
:10105000FB01DC0102C001900D9241505040D8F7D5
:101060000895DC0101C06D9341505040E0F70895B0
:04107000F894FFCF22
:0E10740000010800001401010000000000004F
:00000001FF
